{
  "contractName": "StyleTransferImage",
  "abi": [
    {
      "inputs": [],
      "stateMutability": "nonpayable",
      "type": "constructor"
    },
    {
      "anonymous": false,
      "inputs": [
        {
          "indexed": true,
          "internalType": "address",
          "name": "owner",
          "type": "address"
        },
        {
          "indexed": true,
          "internalType": "address",
          "name": "approved",
          "type": "address"
        },
        {
          "indexed": true,
          "internalType": "uint256",
          "name": "tokenId",
          "type": "uint256"
        }
      ],
      "name": "Approval",
      "type": "event"
    },
    {
      "anonymous": false,
      "inputs": [
        {
          "indexed": true,
          "internalType": "address",
          "name": "owner",
          "type": "address"
        },
        {
          "indexed": true,
          "internalType": "address",
          "name": "operator",
          "type": "address"
        },
        {
          "indexed": false,
          "internalType": "bool",
          "name": "approved",
          "type": "bool"
        }
      ],
      "name": "ApprovalForAll",
      "type": "event"
    },
    {
      "anonymous": false,
      "inputs": [
        {
          "indexed": true,
          "internalType": "address",
          "name": "previousOwner",
          "type": "address"
        },
        {
          "indexed": true,
          "internalType": "address",
          "name": "newOwner",
          "type": "address"
        }
      ],
      "name": "OwnershipTransferred",
      "type": "event"
    },
    {
      "anonymous": false,
      "inputs": [
        {
          "indexed": true,
          "internalType": "address",
          "name": "from",
          "type": "address"
        },
        {
          "indexed": true,
          "internalType": "address",
          "name": "to",
          "type": "address"
        },
        {
          "indexed": true,
          "internalType": "uint256",
          "name": "tokenId",
          "type": "uint256"
        }
      ],
      "name": "Transfer",
      "type": "event"
    },
    {
      "inputs": [
        {
          "internalType": "address",
          "name": "to",
          "type": "address"
        },
        {
          "internalType": "uint256",
          "name": "tokenId",
          "type": "uint256"
        }
      ],
      "name": "approve",
      "outputs": [],
      "stateMutability": "nonpayable",
      "type": "function"
    },
    {
      "inputs": [
        {
          "internalType": "address",
          "name": "owner",
          "type": "address"
        }
      ],
      "name": "balanceOf",
      "outputs": [
        {
          "internalType": "uint256",
          "name": "",
          "type": "uint256"
        }
      ],
      "stateMutability": "view",
      "type": "function",
      "constant": true
    },
    {
      "inputs": [
        {
          "internalType": "uint256",
          "name": "tokenId",
          "type": "uint256"
        }
      ],
      "name": "getApproved",
      "outputs": [
        {
          "internalType": "address",
          "name": "",
          "type": "address"
        }
      ],
      "stateMutability": "view",
      "type": "function",
      "constant": true
    },
    {
      "inputs": [
        {
          "internalType": "address",
          "name": "owner",
          "type": "address"
        },
        {
          "internalType": "address",
          "name": "operator",
          "type": "address"
        }
      ],
      "name": "isApprovedForAll",
      "outputs": [
        {
          "internalType": "bool",
          "name": "",
          "type": "bool"
        }
      ],
      "stateMutability": "view",
      "type": "function",
      "constant": true
    },
    {
      "inputs": [],
      "name": "name",
      "outputs": [
        {
          "internalType": "string",
          "name": "",
          "type": "string"
        }
      ],
      "stateMutability": "view",
      "type": "function",
      "constant": true
    },
    {
      "inputs": [],
      "name": "owner",
      "outputs": [
        {
          "internalType": "address",
          "name": "",
          "type": "address"
        }
      ],
      "stateMutability": "view",
      "type": "function",
      "constant": true
    },
    {
      "inputs": [
        {
          "internalType": "uint256",
          "name": "tokenId",
          "type": "uint256"
        }
      ],
      "name": "ownerOf",
      "outputs": [
        {
          "internalType": "address",
          "name": "",
          "type": "address"
        }
      ],
      "stateMutability": "view",
      "type": "function",
      "constant": true
    },
    {
      "inputs": [],
      "name": "renounceOwnership",
      "outputs": [],
      "stateMutability": "nonpayable",
      "type": "function"
    },
    {
      "inputs": [
        {
          "internalType": "address",
          "name": "from",
          "type": "address"
        },
        {
          "internalType": "address",
          "name": "to",
          "type": "address"
        },
        {
          "internalType": "uint256",
          "name": "tokenId",
          "type": "uint256"
        }
      ],
      "name": "safeTransferFrom",
      "outputs": [],
      "stateMutability": "nonpayable",
      "type": "function"
    },
    {
      "inputs": [
        {
          "internalType": "address",
          "name": "from",
          "type": "address"
        },
        {
          "internalType": "address",
          "name": "to",
          "type": "address"
        },
        {
          "internalType": "uint256",
          "name": "tokenId",
          "type": "uint256"
        },
        {
          "internalType": "bytes",
          "name": "_data",
          "type": "bytes"
        }
      ],
      "name": "safeTransferFrom",
      "outputs": [],
      "stateMutability": "nonpayable",
      "type": "function"
    },
    {
      "inputs": [
        {
          "internalType": "address",
          "name": "operator",
          "type": "address"
        },
        {
          "internalType": "bool",
          "name": "approved",
          "type": "bool"
        }
      ],
      "name": "setApprovalForAll",
      "outputs": [],
      "stateMutability": "nonpayable",
      "type": "function"
    },
    {
      "inputs": [
        {
          "internalType": "bytes4",
          "name": "interfaceId",
          "type": "bytes4"
        }
      ],
      "name": "supportsInterface",
      "outputs": [
        {
          "internalType": "bool",
          "name": "",
          "type": "bool"
        }
      ],
      "stateMutability": "view",
      "type": "function",
      "constant": true
    },
    {
      "inputs": [],
      "name": "symbol",
      "outputs": [
        {
          "internalType": "string",
          "name": "",
          "type": "string"
        }
      ],
      "stateMutability": "view",
      "type": "function",
      "constant": true
    },
    {
      "inputs": [],
      "name": "tokenID",
      "outputs": [
        {
          "internalType": "uint256",
          "name": "",
          "type": "uint256"
        }
      ],
      "stateMutability": "view",
      "type": "function",
      "constant": true
    },
    {
      "inputs": [
        {
          "internalType": "uint256",
          "name": "tokenId",
          "type": "uint256"
        }
      ],
      "name": "tokenURI",
      "outputs": [
        {
          "internalType": "string",
          "name": "",
          "type": "string"
        }
      ],
      "stateMutability": "view",
      "type": "function",
      "constant": true
    },
    {
      "inputs": [
        {
          "internalType": "address",
          "name": "from",
          "type": "address"
        },
        {
          "internalType": "address",
          "name": "to",
          "type": "address"
        },
        {
          "internalType": "uint256",
          "name": "tokenId",
          "type": "uint256"
        }
      ],
      "name": "transferFrom",
      "outputs": [],
      "stateMutability": "nonpayable",
      "type": "function"
    },
    {
      "inputs": [
        {
          "internalType": "address",
          "name": "newOwner",
          "type": "address"
        }
      ],
      "name": "transferOwnership",
      "outputs": [],
      "stateMutability": "nonpayable",
      "type": "function"
    },
    {
      "inputs": [
        {
          "internalType": "string",
          "name": "_productName",
          "type": "string"
        },
        {
          "internalType": "string",
          "name": "_mlModel",
          "type": "string"
        }
      ],
      "name": "claim",
      "outputs": [
        {
          "internalType": "uint256",
          "name": "",
          "type": "uint256"
        }
      ],
      "stateMutability": "nonpayable",
      "type": "function"
    },
    {
      "inputs": [
        {
          "internalType": "uint256",
          "name": "tokenId",
          "type": "uint256"
        }
      ],
      "name": "get",
      "outputs": [
        {
          "components": [
            {
              "internalType": "string",
              "name": "productName",
              "type": "string"
            },
            {
              "internalType": "string",
              "name": "mlModel",
              "type": "string"
            }
          ],
          "internalType": "struct StyleTransferImage.Metadata",
          "name": "",
          "type": "tuple"
        }
      ],
      "stateMutability": "view",
      "type": "function",
      "constant": true
    }
  ],
  "bytecode": "0x60806040523480156200001157600080fd5b506040518060400160405280601281526020017f5374796c655472616e73666572496d61676500000000000000000000000000008152506040518060400160405280600381526020017f53544900000000000000000000000000000000000000000000000000000000008152506200009e620000926200021660201b60201c565b6200021e60201b60201c565b8160019080519060200190620000b692919062000612565b508060029080519060200190620000cf92919062000612565b505050620001186040518060400160405280601681526020017f687474703a2f2f6c6f63616c686f73743a383038302f00000000000000000000815250620002e260201b60201c565b620001946040518060400160405280600581526020017f4170706c650000000000000000000000000000000000000000000000000000008152506040518060400160405280600c81526020017f7374617272795f6e696768740000000000000000000000000000000000000000815250620002fe60201b60201c565b620002106040518060400160405280600581526020017f4d616e676f0000000000000000000000000000000000000000000000000000008152506040518060400160405280600c81526020017f7374617272795f6e696768740000000000000000000000000000000000000000815250620002fe60201b60201c565b620008e4565b600033905090565b60008060009054906101000a900473ffffffffffffffffffffffffffffffffffffffff169050816000806101000a81548173ffffffffffffffffffffffffffffffffffffffff021916908373ffffffffffffffffffffffffffffffffffffffff1602179055508173ffffffffffffffffffffffffffffffffffffffff168173ffffffffffffffffffffffffffffffffffffffff167f8be0079c531659141344cd1fd0a4f28419497f9722a3daafe3b4186f6b6457e060405160405180910390a35050565b8060099080519060200190620002fa92919062000612565b5050565b60006040518060400160405280848152602001838152509050600781908060018154018082558091505060019003906000526020600020906002020160009091909190915060008201518160000190805190602001906200036192919062000612565b5060208201518160010190805190602001906200038092919062000612565b5050506200039c33600854620003bb60201b62000fc71760201c565b60086000815480929190620003b19062000838565b9190505550505050565b600073ffffffffffffffffffffffffffffffffffffffff168273ffffffffffffffffffffffffffffffffffffffff1614156200042e576040517f08c379a0000000000000000000000000000000000000000000000000000000008152600401620004259062000768565b60405180910390fd5b6200043f81620005a160201b60201c565b1562000482576040517f08c379a0000000000000000000000000000000000000000000000000000000008152600401620004799062000746565b60405180910390fd5b62000496600083836200060d60201b60201c565b6001600460008473ffffffffffffffffffffffffffffffffffffffff1673ffffffffffffffffffffffffffffffffffffffff1681526020019081526020016000206000828254620004e891906200079b565b92505081905550816003600083815260200190815260200160002060006101000a81548173ffffffffffffffffffffffffffffffffffffffff021916908373ffffffffffffffffffffffffffffffffffffffff160217905550808273ffffffffffffffffffffffffffffffffffffffff16600073ffffffffffffffffffffffffffffffffffffffff167fddf252ad1be2c89b69c2b068fc378daa952ba7f163c4a11628f55a4df523b3ef60405160405180910390a45050565b60008073ffffffffffffffffffffffffffffffffffffffff166003600084815260200190815260200160002060009054906101000a900473ffffffffffffffffffffffffffffffffffffffff1673ffffffffffffffffffffffffffffffffffffffff1614159050919050565b505050565b828054620006209062000802565b90600052602060002090601f01602090048101928262000644576000855562000690565b82601f106200065f57805160ff191683800117855562000690565b8280016001018555821562000690579182015b828111156200068f57825182559160200191906001019062000672565b5b5090506200069f9190620006a3565b5090565b5b80821115620006be576000816000905550600101620006a4565b5090565b6000620006d1601c836200078a565b91507f4552433732313a20746f6b656e20616c7265616479206d696e746564000000006000830152602082019050919050565b6000620007136020836200078a565b91507f4552433732313a206d696e7420746f20746865207a65726f20616464726573736000830152602082019050919050565b600060208201905081810360008301526200076181620006c2565b9050919050565b60006020820190508181036000830152620007838162000704565b9050919050565b600082825260208201905092915050565b6000620007a882620007f8565b9150620007b583620007f8565b9250827fffffffffffffffffffffffffffffffffffffffffffffffffffffffffffffffff03821115620007ed57620007ec62000886565b5b828201905092915050565b6000819050919050565b600060028204905060018216806200081b57607f821691505b60208210811415620008325762000831620008b5565b5b50919050565b60006200084582620007f8565b91507fffffffffffffffffffffffffffffffffffffffffffffffffffffffffffffffff8214156200087b576200087a62000886565b5b600182019050919050565b7f4e487b7100000000000000000000000000000000000000000000000000000000600052601160045260246000fd5b7f4e487b7100000000000000000000000000000000000000000000000000000000600052602260045260246000fd5b612f1d80620008f46000396000f3fe608060405234801561001057600080fd5b50600436106101215760003560e01c80638da5cb5b116100ad578063b88d4fde11610071578063b88d4fde14610308578063c87b56dd14610324578063cb6ab5d814610354578063e985e9c514610384578063f2fde38b146103b457610121565b80638da5cb5b146102625780639507d39a1461028057806395d89b41146102b0578063a22cb465146102ce578063a5c42ef1146102ea57610121565b806323b872dd116100f457806323b872dd146101c057806342842e0e146101dc5780636352211e146101f857806370a0823114610228578063715018a61461025857610121565b806301ffc9a71461012657806306fdde0314610156578063081812fc14610174578063095ea7b3146101a4575b600080fd5b610140600480360381019061013b9190611fbb565b6103d0565b60405161014d9190612842565b60405180910390f35b61015e6104b2565b60405161016b919061285d565b60405180910390f35b61018e60048036038101906101899190612079565b610544565b60405161019b91906127db565b60405180910390f35b6101be60048036038101906101b99190611f7f565b6105c9565b005b6101da60048036038101906101d59190611e79565b6106e1565b005b6101f660048036038101906101f19190611e79565b610741565b005b610212600480360381019061020d9190612079565b610761565b60405161021f91906127db565b60405180910390f35b610242600480360381019061023d9190611e14565b610813565b60405161024f9190612aa1565b60405180910390f35b6102606108cb565b005b61026a610953565b60405161027791906127db565b60405180910390f35b61029a60048036038101906102959190612079565b61097c565b6040516102a79190612a7f565b60405180910390f35b6102b8610b02565b6040516102c5919061285d565b60405180910390f35b6102e860048036038101906102e39190611f43565b610b94565b005b6102f2610d15565b6040516102ff9190612aa1565b60405180910390f35b610322600480360381019061031d9190611ec8565b610d1b565b005b61033e60048036038101906103399190612079565b610d7d565b60405161034b919061285d565b60405180910390f35b61036e6004803603810190610369919061200d565b610e24565b60405161037b9190612aa1565b60405180910390f35b61039e60048036038101906103999190611e3d565b610e3b565b6040516103ab9190612842565b60405180910390f35b6103ce60048036038101906103c99190611e14565b610ecf565b005b60007f80ac58cd000000000000000000000000000000000000000000000000000000007bffffffffffffffffffffffffffffffffffffffffffffffffffffffff1916827bffffffffffffffffffffffffffffffffffffffffffffffffffffffff1916148061049b57507f5b5e139f000000000000000000000000000000000000000000000000000000007bffffffffffffffffffffffffffffffffffffffffffffffffffffffff1916827bffffffffffffffffffffffffffffffffffffffffffffffffffffffff1916145b806104ab57506104aa82611195565b5b9050919050565b6060600180546104c190612d12565b80601f01602080910402602001604051908101604052809291908181526020018280546104ed90612d12565b801561053a5780601f1061050f5761010080835404028352916020019161053a565b820191906000526020600020905b81548152906001019060200180831161051d57829003601f168201915b5050505050905090565b600061054f826111ff565b61058e576040517f08c379a0000000000000000000000000000000000000000000000000000000008152600401610585906129bf565b60405180910390fd5b6005600083815260200190815260200160002060009054906101000a900473ffffffffffffffffffffffffffffffffffffffff169050919050565b60006105d482610761565b90508073ffffffffffffffffffffffffffffffffffffffff168373ffffffffffffffffffffffffffffffffffffffff161415610645576040517f08c379a000000000000000000000000000000000000000000000000000000000815260040161063c90612a3f565b60405180910390fd5b8073ffffffffffffffffffffffffffffffffffffffff1661066461126b565b73ffffffffffffffffffffffffffffffffffffffff16148061069357506106928161068d61126b565b610e3b565b5b6106d2576040517f08c379a00000000000000000000000000000000000000000000000000000000081526004016106c99061293f565b60405180910390fd5b6106dc8383611273565b505050565b6106f26106ec61126b565b8261132c565b610731576040517f08c379a000000000000000000000000000000000000000000000000000000000815260040161072890612a5f565b60405180910390fd5b61073c83838361140a565b505050565b61075c83838360405180602001604052806000815250610d1b565b505050565b6000806003600084815260200190815260200160002060009054906101000a900473ffffffffffffffffffffffffffffffffffffffff169050600073ffffffffffffffffffffffffffffffffffffffff168173ffffffffffffffffffffffffffffffffffffffff16141561080a576040517f08c379a00000000000000000000000000000000000000000000000000000000081526004016108019061297f565b60405180910390fd5b80915050919050565b60008073ffffffffffffffffffffffffffffffffffffffff168273ffffffffffffffffffffffffffffffffffffffff161415610884576040517f08c379a000000000000000000000000000000000000000000000000000000000815260040161087b9061295f565b60405180910390fd5b600460008373ffffffffffffffffffffffffffffffffffffffff1673ffffffffffffffffffffffffffffffffffffffff168152602001908152602001600020549050919050565b6108d361126b565b73ffffffffffffffffffffffffffffffffffffffff166108f1610953565b73ffffffffffffffffffffffffffffffffffffffff1614610947576040517f08c379a000000000000000000000000000000000000000000000000000000000815260040161093e906129df565b60405180910390fd5b6109516000611666565b565b60008060009054906101000a900473ffffffffffffffffffffffffffffffffffffffff16905090565b610984611c1e565b600782815481106109be577f4e487b7100000000000000000000000000000000000000000000000000000000600052603260045260246000fd5b90600052602060002090600202016040518060400160405290816000820180546109e790612d12565b80601f0160208091040260200160405190810160405280929190818152602001828054610a1390612d12565b8015610a605780601f10610a3557610100808354040283529160200191610a60565b820191906000526020600020905b815481529060010190602001808311610a4357829003601f168201915b50505050508152602001600182018054610a7990612d12565b80601f0160208091040260200160405190810160405280929190818152602001828054610aa590612d12565b8015610af25780601f10610ac757610100808354040283529160200191610af2565b820191906000526020600020905b815481529060010190602001808311610ad557829003601f168201915b5050505050815250509050919050565b606060028054610b1190612d12565b80601f0160208091040260200160405190810160405280929190818152602001828054610b3d90612d12565b8015610b8a5780601f10610b5f57610100808354040283529160200191610b8a565b820191906000526020600020905b815481529060010190602001808311610b6d57829003601f168201915b5050505050905090565b610b9c61126b565b73ffffffffffffffffffffffffffffffffffffffff168273ffffffffffffffffffffffffffffffffffffffff161415610c0a576040517f08c379a0000000000000000000000000000000000000000000000000000000008152600401610c01906128ff565b60405180910390fd5b8060066000610c1761126b565b73ffffffffffffffffffffffffffffffffffffffff1673ffffffffffffffffffffffffffffffffffffffff16815260200190815260200160002060008473ffffffffffffffffffffffffffffffffffffffff1673ffffffffffffffffffffffffffffffffffffffff16815260200190815260200160002060006101000a81548160ff0219169083151502179055508173ffffffffffffffffffffffffffffffffffffffff16610cc461126b565b73ffffffffffffffffffffffffffffffffffffffff167f17307eab39ab6107e8899845ad3d59bd9653f200f220920489ca2b5937696c3183604051610d099190612842565b60405180910390a35050565b60085481565b610d2c610d2661126b565b8361132c565b610d6b576040517f08c379a0000000000000000000000000000000000000000000000000000000008152600401610d6290612a5f565b60405180910390fd5b610d778484848461172a565b50505050565b6060610d88826111ff565b610dc7576040517f08c379a0000000000000000000000000000000000000000000000000000000008152600401610dbe90612a1f565b60405180910390fd5b6000610dd1611786565b90506000815111610df15760405180602001604052806000815250610e1c565b80610dfb84611818565b604051602001610e0c9291906127b7565b6040516020818303038152906040525b915050919050565b6000610e3083836119c5565b600854905092915050565b6000600660008473ffffffffffffffffffffffffffffffffffffffff1673ffffffffffffffffffffffffffffffffffffffff16815260200190815260200160002060008373ffffffffffffffffffffffffffffffffffffffff1673ffffffffffffffffffffffffffffffffffffffff16815260200190815260200160002060009054906101000a900460ff16905092915050565b610ed761126b565b73ffffffffffffffffffffffffffffffffffffffff16610ef5610953565b73ffffffffffffffffffffffffffffffffffffffff1614610f4b576040517f08c379a0000000000000000000000000000000000000000000000000000000008152600401610f42906129df565b60405180910390fd5b600073ffffffffffffffffffffffffffffffffffffffff168173ffffffffffffffffffffffffffffffffffffffff161415610fbb576040517f08c379a0000000000000000000000000000000000000000000000000000000008152600401610fb29061289f565b60405180910390fd5b610fc481611666565b50565b600073ffffffffffffffffffffffffffffffffffffffff168273ffffffffffffffffffffffffffffffffffffffff161415611037576040517f08c379a000000000000000000000000000000000000000000000000000000000815260040161102e9061299f565b60405180910390fd5b611040816111ff565b15611080576040517f08c379a0000000000000000000000000000000000000000000000000000000008152600401611077906128bf565b60405180910390fd5b61108c60008383611a6f565b6001600460008473ffffffffffffffffffffffffffffffffffffffff1673ffffffffffffffffffffffffffffffffffffffff16815260200190815260200160002060008282546110dc9190612ba1565b92505081905550816003600083815260200190815260200160002060006101000a81548173ffffffffffffffffffffffffffffffffffffffff021916908373ffffffffffffffffffffffffffffffffffffffff160217905550808273ffffffffffffffffffffffffffffffffffffffff16600073ffffffffffffffffffffffffffffffffffffffff167fddf252ad1be2c89b69c2b068fc378daa952ba7f163c4a11628f55a4df523b3ef60405160405180910390a45050565b60007f01ffc9a7000000000000000000000000000000000000000000000000000000007bffffffffffffffffffffffffffffffffffffffffffffffffffffffff1916827bffffffffffffffffffffffffffffffffffffffffffffffffffffffff1916149050919050565b60008073ffffffffffffffffffffffffffffffffffffffff166003600084815260200190815260200160002060009054906101000a900473ffffffffffffffffffffffffffffffffffffffff1673ffffffffffffffffffffffffffffffffffffffff1614159050919050565b600033905090565b816005600083815260200190815260200160002060006101000a81548173ffffffffffffffffffffffffffffffffffffffff021916908373ffffffffffffffffffffffffffffffffffffffff160217905550808273ffffffffffffffffffffffffffffffffffffffff166112e683610761565b73ffffffffffffffffffffffffffffffffffffffff167f8c5be1e5ebec7d5bd14f71427d1e84f3dd0314c0f7b2291e5b200ac8c7c3b92560405160405180910390a45050565b6000611337826111ff565b611376576040517f08c379a000000000000000000000000000000000000000000000000000000000815260040161136d9061291f565b60405180910390fd5b600061138183610761565b90508073ffffffffffffffffffffffffffffffffffffffff168473ffffffffffffffffffffffffffffffffffffffff1614806113f057508373ffffffffffffffffffffffffffffffffffffffff166113d884610544565b73ffffffffffffffffffffffffffffffffffffffff16145b8061140157506114008185610e3b565b5b91505092915050565b8273ffffffffffffffffffffffffffffffffffffffff1661142a82610761565b73ffffffffffffffffffffffffffffffffffffffff1614611480576040517f08c379a0000000000000000000000000000000000000000000000000000000008152600401611477906129ff565b60405180910390fd5b600073ffffffffffffffffffffffffffffffffffffffff168273ffffffffffffffffffffffffffffffffffffffff1614156114f0576040517f08c379a00000000000000000000000000000000000000000000000000000000081526004016114e7906128df565b60405180910390fd5b6114fb838383611a6f565b611506600082611273565b6001600460008573ffffffffffffffffffffffffffffffffffffffff1673ffffffffffffffffffffffffffffffffffffffff16815260200190815260200160002060008282546115569190612c28565b925050819055506001600460008473ffffffffffffffffffffffffffffffffffffffff1673ffffffffffffffffffffffffffffffffffffffff16815260200190815260200160002060008282546115ad9190612ba1565b92505081905550816003600083815260200190815260200160002060006101000a81548173ffffffffffffffffffffffffffffffffffffffff021916908373ffffffffffffffffffffffffffffffffffffffff160217905550808273ffffffffffffffffffffffffffffffffffffffff168473ffffffffffffffffffffffffffffffffffffffff167fddf252ad1be2c89b69c2b068fc378daa952ba7f163c4a11628f55a4df523b3ef60405160405180910390a4505050565b60008060009054906101000a900473ffffffffffffffffffffffffffffffffffffffff169050816000806101000a81548173ffffffffffffffffffffffffffffffffffffffff021916908373ffffffffffffffffffffffffffffffffffffffff1602179055508173ffffffffffffffffffffffffffffffffffffffff168173ffffffffffffffffffffffffffffffffffffffff167f8be0079c531659141344cd1fd0a4f28419497f9722a3daafe3b4186f6b6457e060405160405180910390a35050565b61173584848461140a565b61174184848484611a74565b611780576040517f08c379a00000000000000000000000000000000000000000000000000000000081526004016117779061287f565b60405180910390fd5b50505050565b60606009805461179590612d12565b80601f01602080910402602001604051908101604052809291908181526020018280546117c190612d12565b801561180e5780601f106117e35761010080835404028352916020019161180e565b820191906000526020600020905b8154815290600101906020018083116117f157829003601f168201915b5050505050905090565b60606000821415611860576040518060400160405280600181526020017f300000000000000000000000000000000000000000000000000000000000000081525090506119c0565b600082905060005b6000821461189257808061187b90612d44565b915050600a8261188b9190612bf7565b9150611868565b60008167ffffffffffffffff8111156118d4577f4e487b7100000000000000000000000000000000000000000000000000000000600052604160045260246000fd5b6040519080825280601f01601f1916602001820160405280156119065781602001600182028036833780820191505090505b5090505b600085146119b95760018261191f9190612c28565b9150600a8561192e9190612d8d565b603061193a9190612ba1565b60f81b818381518110611976577f4e487b7100000000000000000000000000000000000000000000000000000000600052603260045260246000fd5b60200101907effffffffffffffffffffffffffffffffffffffffffffffffffffffffffffff1916908160001a905350600a856119b29190612bf7565b945061190a565b8093505050505b919050565b6000604051806040016040528084815260200183815250905060078190806001815401808255809150506001900390600052602060002090600202016000909190919091506000820151816000019080519060200190611a26929190611c38565b506020820151816001019080519060200190611a43929190611c38565b505050611a5233600854610fc7565b60086000815480929190611a6590612d44565b9190505550505050565b505050565b6000611a958473ffffffffffffffffffffffffffffffffffffffff16611c0b565b15611bfe578373ffffffffffffffffffffffffffffffffffffffff1663150b7a02611abe61126b565b8786866040518563ffffffff1660e01b8152600401611ae094939291906127f6565b602060405180830381600087803b158015611afa57600080fd5b505af1925050508015611b2b57506040513d601f19601f82011682018060405250810190611b289190611fe4565b60015b611bae573d8060008114611b5b576040519150601f19603f3d011682016040523d82523d6000602084013e611b60565b606091505b50600081511415611ba6576040517f08c379a0000000000000000000000000000000000000000000000000000000008152600401611b9d9061287f565b60405180910390fd5b805181602001fd5b63150b7a0260e01b7bffffffffffffffffffffffffffffffffffffffffffffffffffffffff1916817bffffffffffffffffffffffffffffffffffffffffffffffffffffffff191614915050611c03565b600190505b949350505050565b600080823b905060008111915050919050565b604051806040016040528060608152602001606081525090565b828054611c4490612d12565b90600052602060002090601f016020900481019282611c665760008555611cad565b82601f10611c7f57805160ff1916838001178555611cad565b82800160010185558215611cad579182015b82811115611cac578251825591602001919060010190611c91565b5b509050611cba9190611cbe565b5090565b5b80821115611cd7576000816000905550600101611cbf565b5090565b6000611cee611ce984612aed565b612abc565b905082815260208101848484011115611d0657600080fd5b611d11848285612cd0565b509392505050565b6000611d2c611d2784612b1d565b612abc565b905082815260208101848484011115611d4457600080fd5b611d4f848285612cd0565b509392505050565b600081359050611d6681612e8b565b92915050565b600081359050611d7b81612ea2565b92915050565b600081359050611d9081612eb9565b92915050565b600081519050611da581612eb9565b92915050565b600082601f830112611dbc57600080fd5b8135611dcc848260208601611cdb565b91505092915050565b600082601f830112611de657600080fd5b8135611df6848260208601611d19565b91505092915050565b600081359050611e0e81612ed0565b92915050565b600060208284031215611e2657600080fd5b6000611e3484828501611d57565b91505092915050565b60008060408385031215611e5057600080fd5b6000611e5e85828601611d57565b9250506020611e6f85828601611d57565b9150509250929050565b600080600060608486031215611e8e57600080fd5b6000611e9c86828701611d57565b9350506020611ead86828701611d57565b9250506040611ebe86828701611dff565b9150509250925092565b60008060008060808587031215611ede57600080fd5b6000611eec87828801611d57565b9450506020611efd87828801611d57565b9350506040611f0e87828801611dff565b925050606085013567ffffffffffffffff811115611f2b57600080fd5b611f3787828801611dab565b91505092959194509250565b60008060408385031215611f5657600080fd5b6000611f6485828601611d57565b9250506020611f7585828601611d6c565b9150509250929050565b60008060408385031215611f9257600080fd5b6000611fa085828601611d57565b9250506020611fb185828601611dff565b9150509250929050565b600060208284031215611fcd57600080fd5b6000611fdb84828501611d81565b91505092915050565b600060208284031215611ff657600080fd5b600061200484828501611d96565b91505092915050565b6000806040838503121561202057600080fd5b600083013567ffffffffffffffff81111561203a57600080fd5b61204685828601611dd5565b925050602083013567ffffffffffffffff81111561206357600080fd5b61206f85828601611dd5565b9150509250929050565b60006020828403121561208b57600080fd5b600061209984828501611dff565b91505092915050565b6120ab81612c5c565b82525050565b6120ba81612c6e565b82525050565b60006120cb82612b4d565b6120d58185612b63565b93506120e5818560208601612cdf565b6120ee81612e7a565b840191505092915050565b600061210482612b58565b61210e8185612b74565b935061211e818560208601612cdf565b61212781612e7a565b840191505092915050565b600061213d82612b58565b6121478185612b85565b9350612157818560208601612cdf565b61216081612e7a565b840191505092915050565b600061217682612b58565b6121808185612b96565b9350612190818560208601612cdf565b80840191505092915050565b60006121a9603283612b85565b91507f4552433732313a207472616e7366657220746f206e6f6e20455243373231526560008301527f63656976657220696d706c656d656e74657200000000000000000000000000006020830152604082019050919050565b600061220f602683612b85565b91507f4f776e61626c653a206e6577206f776e657220697320746865207a65726f206160008301527f64647265737300000000000000000000000000000000000000000000000000006020830152604082019050919050565b6000612275601c83612b85565b91507f4552433732313a20746f6b656e20616c7265616479206d696e746564000000006000830152602082019050919050565b60006122b5602483612b85565b91507f4552433732313a207472616e7366657220746f20746865207a65726f2061646460008301527f72657373000000000000000000000000000000000000000000000000000000006020830152604082019050919050565b600061231b601983612b85565b91507f4552433732313a20617070726f766520746f2063616c6c6572000000000000006000830152602082019050919050565b600061235b602c83612b85565b91507f4552433732313a206f70657261746f7220717565727920666f72206e6f6e657860008301527f697374656e7420746f6b656e00000000000000000000000000000000000000006020830152604082019050919050565b60006123c1603883612b85565b91507f4552433732313a20617070726f76652063616c6c6572206973206e6f74206f7760008301527f6e6572206e6f7220617070726f76656420666f7220616c6c00000000000000006020830152604082019050919050565b6000612427602a83612b85565b91507f4552433732313a2062616c616e636520717565727920666f7220746865207a6560008301527f726f2061646472657373000000000000000000000000000000000000000000006020830152604082019050919050565b600061248d602983612b85565b91507f4552433732313a206f776e657220717565727920666f72206e6f6e657869737460008301527f656e7420746f6b656e00000000000000000000000000000000000000000000006020830152604082019050919050565b60006124f3602083612b85565b91507f4552433732313a206d696e7420746f20746865207a65726f20616464726573736000830152602082019050919050565b6000612533602c83612b85565b91507f4552433732313a20617070726f76656420717565727920666f72206e6f6e657860008301527f697374656e7420746f6b656e00000000000000000000000000000000000000006020830152604082019050919050565b6000612599602083612b85565b91507f4f776e61626c653a2063616c6c6572206973206e6f7420746865206f776e65726000830152602082019050919050565b60006125d9602983612b85565b91507f4552433732313a207472616e73666572206f6620746f6b656e2074686174206960008301527f73206e6f74206f776e00000000000000000000000000000000000000000000006020830152604082019050919050565b600061263f602f83612b85565b91507f4552433732314d657461646174613a2055524920717565727920666f72206e6f60008301527f6e6578697374656e7420746f6b656e00000000000000000000000000000000006020830152604082019050919050565b60006126a5602183612b85565b91507f4552433732313a20617070726f76616c20746f2063757272656e74206f776e6560008301527f72000000000000000000000000000000000000000000000000000000000000006020830152604082019050919050565b600061270b603183612b85565b91507f4552433732313a207472616e736665722063616c6c6572206973206e6f74206f60008301527f776e6572206e6f7220617070726f7665640000000000000000000000000000006020830152604082019050919050565b6000604083016000830151848203600086015261278182826120f9565b9150506020830151848203602086015261279b82826120f9565b9150508091505092915050565b6127b181612cc6565b82525050565b60006127c3828561216b565b91506127cf828461216b565b91508190509392505050565b60006020820190506127f060008301846120a2565b92915050565b600060808201905061280b60008301876120a2565b61281860208301866120a2565b61282560408301856127a8565b818103606083015261283781846120c0565b905095945050505050565b600060208201905061285760008301846120b1565b92915050565b600060208201905081810360008301526128778184612132565b905092915050565b600060208201905081810360008301526128988161219c565b9050919050565b600060208201905081810360008301526128b881612202565b9050919050565b600060208201905081810360008301526128d881612268565b9050919050565b600060208201905081810360008301526128f8816122a8565b9050919050565b600060208201905081810360008301526129188161230e565b9050919050565b600060208201905081810360008301526129388161234e565b9050919050565b60006020820190508181036000830152612958816123b4565b9050919050565b600060208201905081810360008301526129788161241a565b9050919050565b6000602082019050818103600083015261299881612480565b9050919050565b600060208201905081810360008301526129b8816124e6565b9050919050565b600060208201905081810360008301526129d881612526565b9050919050565b600060208201905081810360008301526129f88161258c565b9050919050565b60006020820190508181036000830152612a18816125cc565b9050919050565b60006020820190508181036000830152612a3881612632565b9050919050565b60006020820190508181036000830152612a5881612698565b9050919050565b60006020820190508181036000830152612a78816126fe565b9050919050565b60006020820190508181036000830152612a998184612764565b905092915050565b6000602082019050612ab660008301846127a8565b92915050565b6000604051905081810181811067ffffffffffffffff82111715612ae357612ae2612e4b565b5b8060405250919050565b600067ffffffffffffffff821115612b0857612b07612e4b565b5b601f19601f8301169050602081019050919050565b600067ffffffffffffffff821115612b3857612b37612e4b565b5b601f19601f8301169050602081019050919050565b600081519050919050565b600081519050919050565b600082825260208201905092915050565b600082825260208201905092915050565b600082825260208201905092915050565b600081905092915050565b6000612bac82612cc6565b9150612bb783612cc6565b9250827fffffffffffffffffffffffffffffffffffffffffffffffffffffffffffffffff03821115612bec57612beb612dbe565b5b828201905092915050565b6000612c0282612cc6565b9150612c0d83612cc6565b925082612c1d57612c1c612ded565b5b828204905092915050565b6000612c3382612cc6565b9150612c3e83612cc6565b925082821015612c5157612c50612dbe565b5b828203905092915050565b6000612c6782612ca6565b9050919050565b60008115159050919050565b60007fffffffff0000000000000000000000000000000000000000000000000000000082169050919050565b600073ffffffffffffffffffffffffffffffffffffffff82169050919050565b6000819050919050565b82818337600083830152505050565b60005b83811015612cfd578082015181840152602081019050612ce2565b83811115612d0c576000848401525b50505050565b60006002820490506001821680612d2a57607f821691505b60208210811415612d3e57612d3d612e1c565b5b50919050565b6000612d4f82612cc6565b91507fffffffffffffffffffffffffffffffffffffffffffffffffffffffffffffffff821415612d8257612d81612dbe565b5b600182019050919050565b6000612d9882612cc6565b9150612da383612cc6565b925082612db357612db2612ded565b5b828206905092915050565b7f4e487b7100000000000000000000000000000000000000000000000000000000600052601160045260246000fd5b7f4e487b7100000000000000000000000000000000000000000000000000000000600052601260045260246000fd5b7f4e487b7100000000000000000000000000000000000000000000000000000000600052602260045260246000fd5b7f4e487b7100000000000000000000000000000000000000000000000000000000600052604160045260246000fd5b6000601f19601f8301169050919050565b612e9481612c5c565b8114612e9f57600080fd5b50565b612eab81612c6e565b8114612eb657600080fd5b50565b612ec281612c7a565b8114612ecd57600080fd5b50565b612ed981612cc6565b8114612ee457600080fd5b5056fea2646970667358221220da38776ea9e4d7bab19d2bc34f58395e1c829190dd8c5989a26514ffbfbc84c964736f6c63430008000033",
  "immutableReferences": {},
  "source": "pragma solidity ^0.8.0;\n\nimport \"@openzeppelin/contracts/token/ERC721/ERC721.sol\";\nimport \"@openzeppelin/contracts/access/Ownable.sol\";\n\ncontract StyleTransferImage is Ownable,ERC721 {\n    struct Metadata {\n        string productName;\n        string mlModel;\n    }\n    Metadata[] MetaData;\n    uint256 public tokenID;\n    string private _currentBaseURI;\n\n    constructor() ERC721(\"StyleTransferImage\", \"STI\") {\n        setBaseURI(\"http://localhost:8080/\");\n        mint(\"Apple\",\"starry_night\");\n        mint(\"Mango\",\"starry_night\");\n    }\n\n    function mint(string memory _productName, string memory _mlModel) internal {\n        Metadata memory metadata = Metadata({productName: _productName, mlModel: _mlModel});\n        MetaData.push(metadata);\n        super._mint(msg.sender,tokenID);\n        tokenID++;\n\n\n    }\n\n    function claim(string memory _productName, string memory _mlModel) external returns (uint256) {\n        mint(_productName, _mlModel);\n        return tokenID;\n    }\n\n    function setBaseURI(string memory baseURI) internal {\n        _currentBaseURI = baseURI;\n    }\n\n    function _baseURI() internal view virtual override returns (string memory) {\n        return _currentBaseURI;\n    }\n\n    function get(uint256 tokenId) external view returns (Metadata memory) {\n        return MetaData[tokenId];\n    }\n\n}\n",
  "sourcePath": "/Users/kinshukphalke/Documents/hack-gt8/NFT/contracts/StyleTransferImage.sol",
  "compiler": {
    "name": "solc",
    "version": "0.8.0+commit.c7dfd78e.Emscripten.clang"
  },
  "schemaVersion": "3.4.3",
  "updatedAt": "2021-10-24T09:28:26.940Z",
  "networkType": "ethereum",
  "devdoc": {
    "kind": "dev",
    "methods": {
      "approve(address,uint256)": {
        "details": "See {IERC721-approve}."
      },
      "balanceOf(address)": {
        "details": "See {IERC721-balanceOf}."
      },
      "getApproved(uint256)": {
        "details": "See {IERC721-getApproved}."
      },
      "isApprovedForAll(address,address)": {
        "details": "See {IERC721-isApprovedForAll}."
      },
      "name()": {
        "details": "See {IERC721Metadata-name}."
      },
      "owner()": {
        "details": "Returns the address of the current owner."
      },
      "ownerOf(uint256)": {
        "details": "See {IERC721-ownerOf}."
      },
      "renounceOwnership()": {
        "details": "Leaves the contract without owner. It will not be possible to call `onlyOwner` functions anymore. Can only be called by the current owner. NOTE: Renouncing ownership will leave the contract without an owner, thereby removing any functionality that is only available to the owner."
      },
      "safeTransferFrom(address,address,uint256)": {
        "details": "See {IERC721-safeTransferFrom}."
      },
      "safeTransferFrom(address,address,uint256,bytes)": {
        "details": "See {IERC721-safeTransferFrom}."
      },
      "setApprovalForAll(address,bool)": {
        "details": "See {IERC721-setApprovalForAll}."
      },
      "supportsInterface(bytes4)": {
        "details": "See {IERC165-supportsInterface}."
      },
      "symbol()": {
        "details": "See {IERC721Metadata-symbol}."
      },
      "tokenURI(uint256)": {
        "details": "See {IERC721Metadata-tokenURI}."
      },
      "transferFrom(address,address,uint256)": {
        "details": "See {IERC721-transferFrom}."
      },
      "transferOwnership(address)": {
        "details": "Transfers ownership of the contract to a new account (`newOwner`). Can only be called by the current owner."
      }
    },
    "version": 1
  },
  "userdoc": {
    "kind": "user",
    "methods": {},
    "version": 1
  }
}